{
  "_format": "hh-sol-artifact-1",
  "contractName": "BuyMeACoffee",
  "sourceName": "contracts/BuyMeACoffee.sol",
  "abi": [
    {
      "inputs": [],
      "stateMutability": "nonpayable",
      "type": "constructor"
    },
    {
      "inputs": [
        {
          "internalType": "string",
          "name": "name",
          "type": "string"
        },
        {
          "internalType": "string",
          "name": "message",
          "type": "string"
        }
      ],
      "name": "EmptyValue",
      "type": "error"
    },
    {
      "inputs": [
        {
          "internalType": "uint256",
          "name": "msgValue",
          "type": "uint256"
        }
      ],
      "name": "InsufficientFunds",
      "type": "error"
    },
    {
      "anonymous": false,
      "inputs": [
        {
          "indexed": true,
          "internalType": "address",
          "name": "from",
          "type": "address"
        },
        {
          "indexed": false,
          "internalType": "uint256",
          "name": "timestamp",
          "type": "uint256"
        },
        {
          "indexed": false,
          "internalType": "string",
          "name": "name",
          "type": "string"
        },
        {
          "indexed": false,
          "internalType": "string",
          "name": "message",
          "type": "string"
        }
      ],
      "name": "NewMemo",
      "type": "event"
    },
    {
      "inputs": [
        {
          "internalType": "string",
          "name": "_name",
          "type": "string"
        },
        {
          "internalType": "string",
          "name": "_message",
          "type": "string"
        }
      ],
      "name": "buyCoffee",
      "outputs": [],
      "stateMutability": "payable",
      "type": "function"
    },
    {
      "inputs": [],
      "name": "getMemos",
      "outputs": [
        {
          "components": [
            {
              "internalType": "address",
              "name": "from",
              "type": "address"
            },
            {
              "internalType": "uint256",
              "name": "timestamp",
              "type": "uint256"
            },
            {
              "internalType": "string",
              "name": "name",
              "type": "string"
            },
            {
              "internalType": "string",
              "name": "message",
              "type": "string"
            }
          ],
          "internalType": "struct BuyMeACoffee.Memo[]",
          "name": "",
          "type": "tuple[]"
        }
      ],
      "stateMutability": "view",
      "type": "function"
    },
    {
      "inputs": [],
      "name": "withdrawTips",
      "outputs": [],
      "stateMutability": "nonpayable",
      "type": "function"
    }
  ],
  "bytecode": "0x608060405234801561001057600080fd5b5033600160006101000a81548173ffffffffffffffffffffffffffffffffffffffff021916908373ffffffffffffffffffffffffffffffffffffffff160217905550610cb1806100616000396000f3fe6080604052600436106100345760003560e01c8063204206e1146100395780633aaa74b214610055578063865c51721461006c575b600080fd5b610053600480360381019061004e919061060e565b610097565b005b34801561006157600080fd5b5061006a61026f565b005b34801561007857600080fd5b506100816102d1565b60405161008e919061088b565b60405180910390f35b66038d7ea4c680003410156100e357346040517fcb78cce20000000000000000000000000000000000000000000000000000000081526004016100da91906108bc565b60405180910390fd5b6000825114806100f4575060008151145b156101385781816040517f052ed59600000000000000000000000000000000000000000000000000000000815260040161012f929190610921565b60405180910390fd5b600060405180608001604052803373ffffffffffffffffffffffffffffffffffffffff16815260200142815260200184815260200183815250908060018154018082558091505060019003906000526020600020906004020160009091909190915060008201518160000160006101000a81548173ffffffffffffffffffffffffffffffffffffffff021916908373ffffffffffffffffffffffffffffffffffffffff1602179055506020820151816001015560408201518160020190816102009190610b64565b5060608201518160030190816102169190610b64565b5050503373ffffffffffffffffffffffffffffffffffffffff167fc56140e05f516509ae28110e0f72e17558a7561630dad2647c3ae87d986e365c42848460405161026393929190610c36565b60405180910390a25050565b600160009054906101000a900473ffffffffffffffffffffffffffffffffffffffff1673ffffffffffffffffffffffffffffffffffffffff166108fc479081150290604051600060405180830381858888f193505050506102cf57600080fd5b565b60606000805480602002602001604051908101604052809291908181526020016000905b828210156104ab57838290600052602060002090600402016040518060800160405290816000820160009054906101000a900473ffffffffffffffffffffffffffffffffffffffff1673ffffffffffffffffffffffffffffffffffffffff1673ffffffffffffffffffffffffffffffffffffffff1681526020016001820154815260200160028201805461038890610987565b80601f01602080910402602001604051908101604052809291908181526020018280546103b490610987565b80156104015780601f106103d657610100808354040283529160200191610401565b820191906000526020600020905b8154815290600101906020018083116103e457829003601f168201915b5050505050815260200160038201805461041a90610987565b80601f016020809104026020016040519081016040528092919081815260200182805461044690610987565b80156104935780601f1061046857610100808354040283529160200191610493565b820191906000526020600020905b81548152906001019060200180831161047657829003601f168201915b505050505081525050815260200190600101906102f5565b50505050905090565b6000604051905090565b600080fd5b600080fd5b600080fd5b600080fd5b6000601f19601f8301169050919050565b7f4e487b7100000000000000000000000000000000000000000000000000000000600052604160045260246000fd5b61051b826104d2565b810181811067ffffffffffffffff8211171561053a576105396104e3565b5b80604052505050565b600061054d6104b4565b90506105598282610512565b919050565b600067ffffffffffffffff821115610579576105786104e3565b5b610582826104d2565b9050602081019050919050565b82818337600083830152505050565b60006105b16105ac8461055e565b610543565b9050828152602081018484840111156105cd576105cc6104cd565b5b6105d884828561058f565b509392505050565b600082601f8301126105f5576105f46104c8565b5b813561060584826020860161059e565b91505092915050565b60008060408385031215610625576106246104be565b5b600083013567ffffffffffffffff811115610643576106426104c3565b5b61064f858286016105e0565b925050602083013567ffffffffffffffff8111156106705761066f6104c3565b5b61067c858286016105e0565b9150509250929050565b600081519050919050565b600082825260208201905092915050565b6000819050602082019050919050565b600073ffffffffffffffffffffffffffffffffffffffff82169050919050565b60006106dd826106b2565b9050919050565b6106ed816106d2565b82525050565b6000819050919050565b610706816106f3565b82525050565b600081519050919050565b600082825260208201905092915050565b60005b8381101561074657808201518184015260208101905061072b565b60008484015250505050565b600061075d8261070c565b6107678185610717565b9350610777818560208601610728565b610780816104d2565b840191505092915050565b60006080830160008301516107a360008601826106e4565b5060208301516107b660208601826106fd565b50604083015184820360408601526107ce8282610752565b915050606083015184820360608601526107e88282610752565b9150508091505092915050565b6000610801838361078b565b905092915050565b6000602082019050919050565b600061082182610686565b61082b8185610691565b93508360208202850161083d856106a2565b8060005b85811015610879578484038952815161085a85826107f5565b945061086583610809565b925060208a01995050600181019050610841565b50829750879550505050505092915050565b600060208201905081810360008301526108a58184610816565b905092915050565b6108b6816106f3565b82525050565b60006020820190506108d160008301846108ad565b92915050565b600082825260208201905092915050565b60006108f38261070c565b6108fd81856108d7565b935061090d818560208601610728565b610916816104d2565b840191505092915050565b6000604082019050818103600083015261093b81856108e8565b9050818103602083015261094f81846108e8565b90509392505050565b7f4e487b7100000000000000000000000000000000000000000000000000000000600052602260045260246000fd5b6000600282049050600182168061099f57607f821691505b6020821081036109b2576109b1610958565b5b50919050565b60008190508160005260206000209050919050565b60006020601f8301049050919050565b600082821b905092915050565b600060088302610a1a7fffffffffffffffffffffffffffffffffffffffffffffffffffffffffffffffff826109dd565b610a2486836109dd565b95508019841693508086168417925050509392505050565b6000819050919050565b6000610a61610a5c610a57846106f3565b610a3c565b6106f3565b9050919050565b6000819050919050565b610a7b83610a46565b610a8f610a8782610a68565b8484546109ea565b825550505050565b600090565b610aa4610a97565b610aaf818484610a72565b505050565b5b81811015610ad357610ac8600082610a9c565b600181019050610ab5565b5050565b601f821115610b1857610ae9816109b8565b610af2846109cd565b81016020851015610b01578190505b610b15610b0d856109cd565b830182610ab4565b50505b505050565b600082821c905092915050565b6000610b3b60001984600802610b1d565b1980831691505092915050565b6000610b548383610b2a565b9150826002028217905092915050565b610b6d8261070c565b67ffffffffffffffff811115610b8657610b856104e3565b5b610b908254610987565b610b9b828285610ad7565b600060209050601f831160018114610bce5760008415610bbc578287015190505b610bc68582610b48565b865550610c2e565b601f198416610bdc866109b8565b60005b82811015610c0457848901518255600182019150602085019450602081019050610bdf565b86831015610c215784890151610c1d601f891682610b2a565b8355505b6001600288020188555050505b505050505050565b6000606082019050610c4b60008301866108ad565b8181036020830152610c5d81856108e8565b90508181036040830152610c7181846108e8565b905094935050505056fea26469706673582212208fc7b4d5475aba6404870960fee403bfcd742696720258a9d57c8dd207d0e28464736f6c63430008110033",
  "linkReferences": {},
  "deployedLinkReferences": {}
}